:020000041000EA
:1000000000200008EB0000100D0000004D01001062
:1000100000000000000000000000000000000000E0
:100020000000000000000000000000004901001076
:10003000000000000000000049010010490100100C
:100040004901001049010010490100104901001048
:100050004901001049010010490100104901001038
:100060004901001049010010490100104901001028
:100070004901001049010010490100104901001018
:1000800010B5064C2378002B07D1054B002B02D06E
:10009000044800E000BF0123237010BDB003000836
:1000A0000000000014150010044B10B5002B03D005
:1000B0000349044800E000BF10BDC0460000000036
:1000C000B4030008141500100230800803D001307A
:1000D0000238FCD1C046C0467047EFF3108072B6BC
:1000E000704780F3108870477047FFF7FDFF72B6C6
:1000F0000F4C104DAC4209DA21686268A368043BDA
:1001000002DBC858D050FAE70C34F3E70A490B4A2F
:100110000020521A02DD043A8850FCDC08480949E4
:100120000860BFF34F8F00F0EDFE00F09BFEFEE78E
:100130002015001038150010B0030008C80500088D
:100140000000000808ED00E0FEE7FEE700B504202F
:100150007146084202D0EFF3098002E0EFF3088015
:10016000043000F091FCFEE7014B18607047C04678
:10017000CC030008044B1B681A00BA3212881B6AB1
:100180005043C0187047C046CC030008A02300B5F8
:100190001B06984226D015D8802825D00AD81028CA
:1001A00024D0402824D000280BD0154809E0A420F2
:1001B000C00306E08022134B520090421CD09842AC
:1001C000F3D100BD104B984218D0104BC018042832
:1001D000EBD800F035FFECEA0F0305000C48F0E720
:1001E0000C48EEE70020ECE70B48EAE70B48E8E7AD
:1001F0000B48E6E70B48E4E71800E2E7A020D7E762
:10020000FF00520006005200090000A0FFFFFF0F90
:10021000020052000300520005005200010050008D
:10022000020050000100520010B50020FFF7A2FFAD
:100230000A4B1C682300BC331B68C0180368002BE2
:100240000ADB074B1868FFF7A1FF012263689A6079
:100250009A68002AFCD110BD0248FCE7CC030008D4
:10026000D003000802005000064B1B68BC331B681B
:10027000C3181B68002B03DA89B241600020704765
:100280000148FCE7CC03000801008A000368002B4A
:1002900004DA89B2C2608160002070470048FCE740
:1002A00001008A00064B1B68BC331B68C3181B681F
:1002B000002B03DAC36800200B6070470148FCE79D
:1002C000CC03000801008A00024B1A68002A00D102
:1002D00018607047E4030008F0B52C244443154827
:1002E0001F0000681E0A0019FF2426402740124CF8
:1002F0001B0C256807602C6A46608360BA352D8820
:100300006F433F190761370080377F01E7190B4DB5
:1003100076014761A4191F043B436419236000233D
:100320008361059BC2610162002B01D01B88838120
:10033000F0BDC046E4030008CC030008081000002C
:10034000F0B5836885B002AD2B800368066A173369
:100350006B804368476A0095826AC16A0400039310
:100360000369C068FFF7B8FF00213B000A003000B6
:100370000091FFF7B1FF2800216B00F039FB00224C
:10038000AB5E002B06DB1F2213401E3A9A4013007F
:10039000014A136005B0F0BD00E100E0F7B52C267E
:1003A000134C70434E43246801932518A4192E69F9
:1003B000002E19D0A069002818D13168002915DA5B
:1003C00001216F680D0063689D40AC4613689DB2C3
:1003D00063461B041D431560F260A161B940019B97
:1003E00089B26362B160FEBD0248FCE70248FAE7E9
:1003F000E403000804028A0007028A0073B500269D
:1004000042690400D56801962B0CB34221D01B042D
:1004100013601368194B00691B68BC331B68C31851
:100420001B68B34215DA01A9FFF73CFFB0420CD1BB
:100430000198E26903681E0CDBB29A4205D9226A70
:100440009B009B58002B00D0984731002069FFF794
:100450000BFFADB2002D09D063691D6000251B683C
:10046000636AAB4205D098476562A56163691B6802
:1004700073BDA36A002BF8D09847F6E7CC030008B9
:100480002C2310B54343034A1068C018FFF7B6FF8A
:1004900010BDC046E40300081A4B70B51A680C0082
:1004A000130033331B7883422AD9002928D00D68E2
:1004B0001F212B000B400D4222D11100BA310988B7
:1004C000126A48431900104D8018286022685209AA
:1004D000934210D30021FFF7C7FE002122002868B5
:1004E000FFF7D4FE011E04D12868FFF7BDFE0028E7
:1004F00000D0064870BD66689A0091510133E5E767
:100500000348F7E7CC030008E803000801018A006C
:1005100003018A0010B504000800002A0CD100294C
:1005200013D10B4B1A681300BA331B88126A63434A
:100530009B18084A136010BD002906D006490860C0
:1005400020004A60FFF7A8FFF5E70448F3E7C0463C
:10055000CC030008E80300087803000803018A00C0
:10056000F7B5184F04003B680191DE683368834299
:1005700026D90025A94202D1FFF7AFFD0500386852
:100580000368002B1ADA1F220123224093406409DA
:100590007268A4001419226813420DD09A43226095
:1005A00000240021FFF760FE019B002B02D12800F0
:1005B000FFF797FD2000FEBD034CF2E7034CF3E785
:1005C000034CF7E7E80300080201880003018800F4
:1005D00004018A000A4B1B68DB681A6882420DD945
:1005E00059681F23420918401E3B8340920050580F
:1005F0001840431E9841034BC01870470248FCE75F
:10060000E80300080001880004018A00054B1B680C
:100610001A0088321B6812689B181868000AC0B25A
:100620007047C046CC030008044B1B681A00883290
:100630001B6812689B181868000E7047CC030008EE
:10064000034BE0308000C0588006800F7047C046E2
:1006500000002640024B18694007C00F7047C04693
:1006600000002740A6220549D2008B580220DB4318
:100670009B0702D00123885818407047000026408D
:1006800010B5FFF7EFFF0023022801D1014B1B68D3
:10069000180010BDF0030008094A83009B18D022FF
:1006A0009200985807221040042807D1C0229200D7
:1006B00098581F2303408020400018437047C046CD
:1006C0000000264010B5FFF7E7FF88235B00984243
:1006D0001AD009D8012811D0022812D0434258411B
:1006E000114B4042184010BD1223FF33984213D0E3
:1006F0001423FF33984214D00020F4E70B4B186802
:10070000F1E7FFF7BDFFEEE7094A0A4BD358002B8C
:10071000F2DA80200002E6E7FFF79CFF0028EBD02A
:10072000F7E7034A044BF1E700127A00EC030008F4
:10073000000026400C0500003C050000B023154ACF
:10074000DB00D35810B59903DB01DB0F890BC371B4
:10075000114B0160D3580F24D904DB01DB0D038159
:10076000B123DB00D358C90C81801900214081726C
:1007700019092140C172D9029B009B0F8373074B5B
:10078000C90CD35881815A05DB01520FDB0D8271F0
:10079000038210BD00002640840500008C05000087
:1007A0008030034BFF308000C058C00F7047C046F8
:1007B0000000264010B5104B421E1B683F331B78CB
:1007C000934216D97F221F2480300C4BFF308000CB
:1007D000C3581A400A701A0C2240180A8A701A016B
:1007E0002040E240487000209B009B0FCA700B71B4
:1007F00010BD0348FCE7C046CC03000800002640BB
:1008000001004A00F0B589B003AC2000FFF796FF65
:10081000B0231A4ADB00D25800239A4203DAA37BA2
:10082000023B5A1E9341E57900266A1E9541013527
:10083000B34220D0A488B4421DD03000039FFFF7FC
:1008400041FF2A00330031000190200000F0AEFC8F
:100850000C00050033003A003100019800F0A6FCBE
:10086000E6076A0832436308801859412A002300CA
:1008700000F07CFC0600300009B0F0BD000026400E
:10088000F7B5234B06001B683F331B78002B08D0BD
:1008900000283BD0834204D36946FFF78BFF041E38
:1008A00001D0002632E03000FFF77AFF2300002855
:1008B00005D06B461C79023C23005A1E93416A46C0
:1008C0005478002BEDD0002CEBD09578002DE8D09B
:1008D00030001778FFF7F6FE002306002A002000FC
:1008E000190000F063FC00230C0005003A00300002
:1008F000190000F05BFCE6076A08324363088018C1
:1009000059412A00230000F031FC06003000FEBDF2
:10091000CC03000810B5041E04D1FFF773FF0028B4
:1009200006D008E0064B1B683F331B78834203D296
:100930002000FFF7C7FE10BDFFF7A2FFEFE7C0469C
:10094000CC03000870B50500FFF77AFEE035074BD1
:10095000AD000400E8580F231840FFF7DBFF012328
:10096000A3405B081818E04070BDC0460000264058
:10097000144B30B51C6823002C331A7807231F2A28
:1009800015D8820815009D432B1E0FD10333184044
:10099000984081402368920020339B180A00FF2171
:1009A00081401C68624011406140196030BD1840B0
:1009B00080231B06184380239B012268C9188900E5
:1009C0008850F3E7CC030008064B10B59A68064C34
:1009D00010308300A24202D19858995010BD034AAA
:1009E000D058FBE700ED00E0000000080000001018
:1009F000F8B506000D0000283AD00023C05E00289C
:100A000028DB7188FFF7B4FF0024FF2203279446F8
:100A10000023F05E71680740FF006646BA40890116
:100A20003140D243B94083B2002815DB114E830810
:100A30009B009B19C026B6009F593A40114399511B
:100A40000D4B9A680D4B9A4202D12900FFF7BCFF6B
:100A50002000F8BD0A4CD8E70F263340083B064E6D
:100A60009B089B009B19DE6932401143D961E7E77F
:100A7000034CEDE700E100E000ED00E000000008BD
:100A800001005600FEE7000002680A4B10B51A602C
:100A900042685A6082689A60C268DA6002691A61C4
:100AA00042695A6182699A61C269DA61FFF7EAFFB5
:100AB00010BDC04690030008B0235B055A78212082
:100AC000002A01D05878C0B27047B0235B059A89DC
:100AD000002A02D0988980B2704780204000FBE74E
:100AE0007FB5274B86000D00F458042901D0012959
:100AF00027D100200FE0A3682B420BD1E368290027
:100B00001A685B6802920193039302A823689847CE
:100B10001C4B1C606469002C0BD01B4B9842EAD123
:100B2000012DE8D1174B18481A68184B9A5104B098
:100B300070BD012DFBD1144B9842F3D0134B9C5147
:100B4000F5E7022915D026006469002CFBD10020AE
:100B5000002EECD0B3682B4209D1F36829001A6843
:100B60005B6802920193039302A833689847366941
:100B7000EEE7044B1B68181ED9D01E69E7E7C04694
:100B80003404000830040008FF0042001C04000880
:100B90001A4B1B68190088311A68096851180968CE
:100BA000016219008C3109685218126842621A00F9
:100BB00046321278002A1FD09A68E0321268D206B4
:100BC0001AD5F222DB68D2019A580260F022D201D3
:100BD0009A5842600A4A9A5882600A4A9A58C260F1
:100BE000094A9A580261094A9A584261084A9A5831
:100BF0008261084A9B58C3617047C046CC03000815
:100C000004780000087800000C78000010780000DC
:100C100014780000187800001A4B1B681A008832FC
:100C2000196812688A18016A11601A008C321968F2
:100C300012688A18416A11601A0046321278002A36
:100C40001ED09A68E0321268D20619D5F0224168A7
:100C5000DB68D201995081680B4A9950C1680B4AF0
:100C6000995001690A4A995041690A4A9950816923
:100C7000094A9950C169094A99500168E832995066
:100C80007047C046CC0300080478000008780000D4
:100C90000C7800001078000014780000187800002C
:100CA000F7B50700FFF708FF5D4D06006B68002BE6
:100CB00000D07DE0FFF711FA6B680090002B00D0A8
:100CC00089E0584C22681300BA33198807234B4334
:100CD000126A9B181A68002AFCDADB68DA0021D550
:100CE0001B0F1B0750480193FFF752FF20684F4925
:100CF000030088331C6803681C1923680B40212EED
:100D000000D06DE0902212011343236003008C3366
:100D100000681B68C318186801400A431A60424BF8
:100D2000019A134380223F4E9205316813430A0013
:100D3000BA321088072200244243096A5218D3604D
:100D400054605368FFF7C1FE80235B0098424AD18C
:100D5000380000F05DFB32681300BA3319880723AE
:100D60004B43126A9B181A68002AFCDADF68FB0002
:100D700003D538010009FFF74FFF2D4B32681F40A4
:100D80001300BA33198807234B43126A00989B1843
:100D90000022DF605A60FFF7A4F9002C0FD16B68C6
:100DA000002B03D008210120FFF79AFE2000FEBD92
:100DB00001210800FFF794FE041E00D17AE76B685A
:100DC000002B03D002210120FFF78AFE194B9C4221
:100DD000ECD0194CEAE704210120FFF781FE70E70F
:100DE0008022520090E733681A00BC32196A1268F8
:100DF00052181168002910DBBA331B889A1813683F
:100E0000002B0ADB04230D4A11690B431361012FE8
:100E100001D030BF9FE720BF9DE7064C9BE7C0464F
:100E200034040008CC030008F4030008FF00FFFFAF
:100E3000FFFFFFDF05004200FF00420000ED00E081
:100E4000C0228020064952008B58C0059B009B0899
:100E500003438B50802388581B0603438B507047F5
:100E60000000264010B562B6034800F0C3F8002029
:100E7000FFF716FFFBE7C0460020001010B500206A
:100E8000FFF7FEFA10BD704710B50020FFF75AFDBE
:100E9000041E28D0144B1860FFF7C6FB411C20002D
:100EA00000F0D8F8114B04001860FFF7AFFB411CAD
:100EB000200000F0CFF804000D4B013C18600D49F4
:100EC000200000F0C7F8FA210B4B013018708900A0
:100ED000200000F0BFF8094B013018600020FFF738
:100EE00031FD074B186010BD880000088C00000819
:100EF0008000000840420F009400000890000008A5
:100F00008400000810B52048FFF72EF9B022E02138
:100F100030201E4CD200A35889005B005B08A35010
:100F200063588343635080235B04A350184B194AD2
:100F3000E250A02204339201E250FF22164BE2500D
:100F4000FFF77EFFC02201215200A3588B43A3501C
:100F5000FFF799FFFFF798FF104B03201A68130063
:100F6000BA33198807234B43126A80219B18002249
:100F7000DA605A600A4AFFF7CDFA0A48FFF7A4F987
:100F80000948FFF7DDF910BD2014001000002640CD
:100F900084050000010002008C050000CC0300085D
:100FA0008003000848040008E01400109023034A5E
:100FB0005B01D058032318407047C0460000204012
:100FC00010B59024FFF789F8074B64011A590749B7
:100FD0001140074A0A431A51102259681142FCD0A5
:100FE000FFF77FF810BDC04600002040FCFF000066
:100FF0000100FA05F8B590260E4C76010700FFF7C0
:101000006CF8A3590500DB439B0701D1FFF7D8FF1C
:1010100080239B00E750A359074A1A40074B13430C
:10102000A351102362681A42FCD02800FFF759F838
:10103000F8BDC04600002040FCFF00000300FA0598
:1010400002B4714649084900095649008E4402BC61
:101050007047C046002243088B4274D303098B4279
:101060005FD3030A8B4244D3030B8B4228D3030C78
:101070008B420DD3FF22090212BA030C8B4202D31A
:101080001212090265D0030B8B4219D300E0090A42
:10109000C30B8B4201D3CB03C01A5241830B8B424B
:1010A00001D38B03C01A5241430B8B4201D34B0334
:1010B000C01A5241030B8B4201D30B03C01A524199
:1010C000C30A8B4201D3CB02C01A5241830A8B421E
:1010D00001D38B02C01A5241430A8B4201D34B0207
:1010E000C01A5241030A8B4201D30B02C01A52416B
:1010F000CDD2C3098B4201D3CB01C01A524183091F
:101100008B4201D38B01C01A524143098B4201D358
:101110004B01C01A524103098B4201D30B01C01A83
:101120005241C3088B4201D3CB00C01A52418308FD
:101130008B4201D38B00C01A524143088B4201D32A
:101140004B00C01A5241411A00D20146524110468A
:101150007047FFE701B5002000F006F802BDC04669
:101160000029F7D076E770477047C046002B11D1B1
:10117000002A0FD1002900D1002802D00021C94344
:10118000080007B4024802A14018029003BDC046FF
:10119000D9FFFFFF03B4684601B5029800F034F8A8
:1011A000019B9E4602B00CBC7047C046F0B5CE46CF
:1011B000474680B5070099463B0C9C4613041B0C20
:1011C0001D000E0061460004140C000C45434B4307
:1011D00060436143C0182C0C20188C46834203D90D
:1011E00080235B029846C444494679437243030C0A
:1011F00063442D042D0CC918000440198918C0BC83
:10120000B946B046F0BDC046F0B557464E464546D5
:10121000DE46E0B504000D009246994683B08B424D
:1012200030D82DD04946504600F0D8F829000600A5
:10123000200000F0D3F8331A9846203B9B4633D465
:101240005A465346934042461F00534693401E0061
:10125000AF423AD8AF4200D178E05B46A41BBD4113
:10126000002B00DA75E00022002300920193012395
:101270005A4693400193012342469340009328E04D
:101280008242CFD900220023009201930C9B002BB5
:1012900001D01C605D600098019903B0F0BCBB46B2
:1012A000B246A946A046F0BD424620239B1A5246AC
:1012B000DA40414613004A468A40170042461F431F
:1012C000534693401E00AF42C4D90022002300922F
:1012D00001934346002BD9D0FB0772081A434646B8
:1012E0007B080EE0AB4201D1A2420CD8A41A9D416A
:1012F000012024196D410021013E24184D41002E8A
:1013000006D0AB42EED9013E24196D41002EF8D132
:10131000009801995B4600196941002B24DB2B00E2
:101320005A464446D3402A00E2401C005B46150062
:10133000002B2ADB26009E40330026004746BE4095
:101340003200801A9941009001919FE7A342BCD8D6
:1013500083E74246202300219B1A0022009101923C
:101360000122DA40019286E7424620239B1A2A0096
:1013700046469A402300F340444613432A00E24085
:101380001C005B461500002BD4DA42462F002023B8
:10139000260097409B1ADE403B003343CDE7C04612
:1013A0001C2101231B04984201D3000C10391B0A95
:1013B000984201D3000A08391B09984201D3000959
:1013C000043902A2105C40187047C04604030202B0
:1013D00001010101000000000000000010B500291B
:1013E00003D1FFF7DDFF203002E00800FFF7D8FF50
:1013F00010BDC046F8B5C046F8BC08BC9E46704754
:10140000F8B5C046F8BC08BC9E4670470000000016
:1014100001B40248844601BC604700BF6102000875
:1014200000002040000024400000004000000000B8
:1014300000002340000030400000314000009F4089
:10144000000022400000104000009D40202020208D
:1014500020101010101D1D8017007500FF030602DC
:1014600006003604102000007FC0000000040000C9
:10147000000000000019324B647D00000000008075
:101480004000080B100000000000FF012002001FB8
:1014900000800004FF081018001000140018001C41
:1014A0004044484C500000000810000008000000B4
:1014B00004000000041000000012000004210000DD
:1014C000002100000016000040114002C413001368
:1014D0008013A01340138813A81320001C000000E1
:1014E00003000000010000000100000000000000F7
:1014F000050360000400000001000000000000007F
:10150000010000000604600008000000A8050008B3
:101510007D0E001000000000F0FCFF7F01000000C5
:1015200000000010000000088000000040150010BE
:1015300080000008F8020000B00300081802000054
:1015400000093D0000093D0000127A0000093D003D
:10155000A00F000004000000A9000010810000108E
:1015600080B230B5C400002820D0114B0722186883
:101570000300BA331B885343026A9A181168002982
:10158000FCDA3E210B4A062511600B4A0B4911601B
:10159000A3210B4AC90055500A495450006A5458B7
:1015A0001B18002058605358002BFCDA30BDC04691
:1015B000CC03000804012640080126401E1F00003D
:1015C000000026401C05000010B54378FF2B11D108
:1015D00000F0FAF80400032000F00EF90121C368BE
:1015E0005B681A680A431A601A680A42FCD1200034
:1015F00000F01AF910BDF7B507000020019100F0C6
:10160000FBF83E4C050023681A005033BC321668C4
:101610001B788619002B59D000F0F6F800900328AB
:101620001AD000F0D1F8364A364B0400D358002BBC
:101630003CDA01212800344A00F0D6F8002835D1E0
:101640000198FFF78DFF002F3ED03368002BFCDBA5
:1016500000F0B2F805002AE0062000F0CDF823687B
:10166000BC331B68C0180368002B02DA274D280022
:10167000FEBD002000F0B0F8254B9842F6D00023C4
:10168000244A19000120126800F0C6F8041EEDD1AA
:10169000002000F0A1F81E4A1F4B904203D09C424C
:1016A000E4D00134F4E79C42BBD1DFE7174D009B47
:1016B000032B05D10121002000F076F80028F9D194
:1016C000200000F0B1F8D2E7144DF0E700F07CF80C
:1016D000012104000C4A280000F086F8002808D1F7
:1016E000002F08D03368002BFCDB00F065F8050004
:1016F000E6E7064DE4E7094DE2E7C046CC03000803
:10170000000026401C050000D00300080500520020
:1017100001018800E0030008F049020001005000C8
:10172000184BF7B51B6818495A6804230C69234302
:101730000B61012824D030BF1300FC331B69002B40
:101740001DD1A324114B12481249E40007681E5909
:101750000D680195104D056006251D513E240C6055
:101760000E4C3E351D511D59002DFCDA0C4CFC323F
:101770001461A322D20007609E50019B0B60F7BD4D
:1017800020BFD9E7CC03000800ED00E000002640B0
:1017900008012640040126401E1F00001C05000011
:1017A000AAAAAAAA0000000001B40248844601BC0B
:1017B000604700BF6105001001B40248844601BCC7
:1017C000604700BF2902001001B40248844601BCF2
:1017D000604700BFDB00001001B40248844601BC32
:1017E000604700BFD505001001B40248844601BC23
:1017F000604700BF8D02001001B40248844601BC5E
:10180000604700BF7501001001B40248844601BC66
:10181000604700BFAD0F001001B40248844601BC10
:10182000604700BF9D03001001B40248844601BC1C
:10183000604700BFE300001000000000000000004F
:101840000000000000000000000000000000000098
:1020000000F80F08252300100D0000009923001090
:10201000992300109923001099230010000000005C
:1020200000000000000000000000000095230010E8
:102030009523001000000000952300109523001048
:102040009523001095230010952300109523001070
:102050009523001095230010952300109523001060
:102060009523001095230010952300109523001050
:102070009523001095230010952300109523001040
:1022E00010B5054C237833B9044B13B10448AFF350
:1022F00000800123237010BDF829000800000000B1
:102300001CE3001008B5034B1BB103490348AFF3AE
:10231000008008BD00000000FC2900081CE300103C
:1023200070477047FFF7FCFF72B6144C144DAC4277
:1023300009DA21686268A368043BA2BFC858D0507C
:10234000FAE70C34F3E70F490F4A00209142BCBF73
:1023500041F8040BFAE70D480D490860BFF34F8FB1
:1023600000F084F800F068F8FFF7DBFF07F0B6FC38
:1023700000F0A6FA07F09EFCFEE7000028E300103C
:1023800040E30010F8290008D02F000800200008C2
:1023900008ED00E0FEE7FEE700B5042071460842C4
:1023A00002D0EFF3098002E0EFF30880043006F07A
:1023B00097FCFEE708B5012004F07CF908BD7047E2
:1023C00010B5002006F07AFB00B910BD0446124B90
:1023D000186005F07DFD0130B4FBF0F00F4B186084
:1023E00005F08EFD0130B4FBF0F40D4B1C60013C98
:1023F0000C4BA3FB04239B0C01330B4A13700B4BB8
:10240000A3FB0434A4090134094B1C60002006F02E
:1024100055FB084B1860D8E7E8220008EC220008BA
:10242000E022000883DE1B43F4220008D34D621033
:10243000F0220008E422000808B5094803F0A2FAD7
:10244000FFF7BDFFFFF7BCFF00221146032004F099
:102450008DF9044803F0E8FF034804F03DF808BD97
:102460005CDE0010142A0008E0D20010EFF31081A7
:1024700072B6074AD2F8883043F47003C2F8883045
:10248000BFF34F8FBFF36F8F81F31088704700BF8A
:1024900000ED00E008B500F0CBF800F00FF800F018
:1024A000BDF800F047F800F04DF808BD08B500F0A1
:1024B000BDF900F02DF800F05FF808BD08B50F2158
:1024C000012005F00BFC00220F21012005F07AFA13
:1024D0000F21012005F0C0FB0021084605F0FEFB9E
:1024E00000221146104605F06DFA0021084605F05D
:1024F000B3FB0721002005F0F1FB00220721104665
:1025000005F060FA0721002005F0A6FB08BD0000D9
:1025100008B5054801F0DEFF044801F0DBFF044880
:1025200001F0D8FF08BD00BF1CD3001014D3001069
:1025300018D3001008B5002211462F2005F050FBDB
:1025400008BD000010B5084C084A0421204603F0DD
:1025500081FE074A0621204603F07CFE054A07213A
:10256000204603F077FE10BD00033140BCD30010BD
:1025700084D300104CD3001008B5184801F0AAFF0E
:10258000174801F0A7FF174801F0A4FF164801F013
:10259000A1FF164801F09EFF154801F09BFF15486A
:1025A00001F098FF144801F095FF144801F092FFE4
:1025B000134801F08FFF134801F08CFF124801F01F
:1025C00089FF124801F086FF114801F083FF11488E
:1025D00001F080FF104801F07DFF08BDF4D300102A
:1025E000F8D3001034D30010F0D30010B8D300108B
:1025F00080D3001020D3001024D3001028D3001063
:102600002CD3001030D3001038D300103CD300106E
:1026100040D3001044D3001048D30010024B3322A3
:102620009A601A61704700BF00203040FEE700004A
:1026300030B583B007220021322005F0D1FA96216F
:10264000002006F09FFB06F02FFBC0B96F4BD3F8BC
:10265000004F04F03F0406F017FB30B1012006F0F4
:1026600009FB6B4B9B6C002B26DB684BC3F8004FC0
:1026700005F02CFD05F020FD012005F03BFD0120BB
:1026800006F090FE06F036FE06F010FF06F0FAFEA9
:1026900005F018FE0021084605F0B6FC002005F004
:1026A00021FC012005F006FC002005F093FB594BAE
:1026B0001B6893F83F4006E00620FFF7B7FF20466F
:1026C00005F03CFF013C002CF9D10021012005F070
:1026D00045FD002005F086FC00287BD0002108463F
:1026E00005F03CFD0021084605F05CFC4A4D002445
:1026F0000094234622462146284603F0C7FC009456
:10270000234622460121284603F0C0FC434805F039
:10271000B5FC00286AD1012005F0BCFB002005F0C3
:10272000E1FB002005F0C6FB002005F053FB002173
:10273000012005F013FD0021084605F00FFD0021E2
:10274000022005F00BFD0021032005F007FD00210C
:10275000042005F003FD0021052005F0FFFC3048B2
:1027600005F0CAFD002844D12E4805F075FE00286A
:1027700042D10021084605F015FC0021084605F06D
:1027800043FC2949012005F0FFFEC0BB42F2107155
:10279000012005F087FFA8BB05F072FB002005F0C3
:1027A00043FB002005F056FB05F060FB00210846C6
:1027B00006F0DCFE012005F027FB05F07DFC012082
:1027C00005F098FC6421002006F0DCFAFFF7F8FD24
:1027D00003B030BD05F0F0FC40F2111398427FF4D5
:1027E0007DAF0121002005F0DDFB77E70520FFF735
:1027F0001DFF0420FFF71AFF0420FFF717FF032037
:10280000FFF714FF0320FFF711FF00BF00F0274080
:1028100000002740D82D00080000314040420F0042
:10282000FCD30010400D030028D4001008B509485F
:1028300001F050FE084801F04DFE084801F04AFE44
:10284000074801F047FE074801F044FE064801F042
:1028500041FE08BD10D4001014D4001018D400108C
:102860001CD4001020D4001024D4001008B5044853
:1028700006F00AFC08B1002008BD0248FCE700BFD2
:10288000F82200080000020610B501F021FE0446FF
:1028900038B154B1FFF7FEFDFFF708FE5CB12046EA
:1028A00010BD02F08FFA0446F3E740F6E441002041
:1028B00002F0D0FAEEE7FFF7D9FF0446EFE7000099
:1028C00010B5CAB0FFF7E0FF00B101BE62B64FF429
:1028D000E1330093FF231A462821292006F0F0FF58
:1028E00000B101BE002256210DA800F081FE184C57
:1028F0000DF1140CA646BEE80F00ACE80F00DEF8A0
:102900000030CCF8003005A90DA800F0EFFA03ABB9
:10291000143494E8030083E803000093FF23562255
:102920000DA90AA800F0F6FB0AA800F003FD00EBD1
:102930004000C000074981FB0031C017C0EB2151A6
:10294000054807F071FE642002F098FAECE700BF3A
:1029500044D400104B6C395130D4001000000000FA
:102960000230800803D001300238FCD100BF00BF24
:102970007047EFF3108072B6704780F3108870478D
:102980009B2800D001BE00207047836E4BB990F8A1
:1029900055301BB3B0F85630C3F3080303B301221C
:1029A00000E001224168D1F81832DAB143F00102A7
:1029B00022EA030333F0F70C00D001BE03F0F70363
:1029C000C1F81032D1F81032436832F0F70100D06C
:1029D00001BE02F0F702C3F8182270470122E1E7B6
:1029E0000022DFE723F00102E2E701460023184658
:1029F00001E00133DBB20F2B06D89A1C51F82220DC
:102A0000002AF6D01846F4E77047000000F00700EF
:102A1000014B53F820007047C4DB001000F00700A2
:102A200019B1044B53F820007047034B53F82000B2
:102A3000704700BF24DC0010E4DB001000F007004A
:102A400011B1034B185C7047024B53F820007047DC
:102A500044DC001004DC0010032809D8DFE800F093
:102A6000020B0406402070477020704760207047BA
:102A700001BE40207047502070470000202816D823
:102A800000283CD001381F283BD8DFE800F0212186
:102A90003A243A3A3A283A3A3A3A3A3A3A2C3A3ACC
:102AA0003A3A3A3A3A3A3A3A3A3A3A3A3A3080285C
:102AB00021D0B0F5807F03D170230B7000207047C8
:102AC000402803D150230B70002070470E487047F8
:102AD00000200870704710230B70002070472023DF
:102AE0000B700020704730230B700020704740238C
:102AF0000B700020704760230B7000207047024865
:102B000070470148704700BF0001020410F0020F37
:102B100005D110F0080F04D04FF4C07070470020AA
:102B200070478020704700B101BE4120704708B552
:102B300012B2406804F096FA08BD08B590F86C101F
:102B4000406804F0B9F908BD70B588B0EFF30580AE
:102B5000103800B2FFF714FF4A4B53F82040626868
:102B60000123C2F81032D2F8102284F8553094F8BC
:102B70005630002B37D1A36E002B74D02046FFF7C0
:102B800034FF461CF6B294F86D30012B46D094F811
:102B90006420002A44D103B101BE636803F5C07309
:102BA00001930123ADF80830226E0392ADF8103086
:102BB00020228DF812200596002206928DF81C30F6
:102BC00004F1700501A9284600F039FF03460028EA
:102BD0003BD0002B3ED003B101BE94F86C30002BEB
:102BE0003DD0012540E0606804F073F9C3E7236E2F
:102BF0001860236E043323660135EDB2B54211D25D
:102C00002946606804F0C4F994F86430002BEED0D3
:102C1000024629462046FFF78AFFE8E70025EDE750
:102C20000025EBE7A36E013BA36623B9C4F8F0309F
:102C30002366032518E094F86C300BB1012513E0EE
:102C40002046FFF77AFF01250EE0284600F01DFF21
:102C50000346BEE7284600F005FF0346BBE72046D3
:102C6000FFF76BFFBDE701252046FFF78EFE94F8C6
:102C70005710294003D0A36D0BB1E06D984708B001
:102C800070BD00BF9C2B000808B5437B012B09D009
:102C9000032B0CD083B1022B00D001BE002002F028
:102CA000E3F80BE0836803B901BE806806E000200A
:102CB00002F0DAF8400801E04FF4966008BD000029
:102CC0002DE9F04182B004460D46882200212846B5
:102CD00007F036F863780C2B39D1636803F00A03E8
:102CE0000A2B39D088220021284607F029F80A2328
:102CF000AB6001232B6685F87430607BFFF7ACFE78
:102D000040F4604040F04000E37BF3B1802318437F
:102D1000237B0BB14FF4606343EA00070DF1070119
:102D20006088FFF7ABFE064690B99DF8078048F033
:102D30000C086068FFF7EAFE48EA00002F60686050
:102D40002046FFF7A1FFA86702E00023DFE7034E5C
:102D5000304602B0BDE8F081004EF9E70001020400
:102D600010B5044603684179586804F0CAF823682E
:102D70005B681B6830B103F46063B3F5606F09D022
:102D8000002200E00022044B1B686179986A04F07D
:102D900003F910BD014AF6E7D82D000800F8FFFF3F
:102DA0002DE9F04188B004464C3000F0FBFD804630
:102DB00010B14B4BB3FBF0F8002306930793B8F127
:102DC000000F3DD09C46184627E007F120026A44D8
:102DD00002F8183C01210133DBB2C1B9032B16D82C
:102DE000B5689E4608AA02EB430232F8082C9542C9
:102DF000EBD0002AEFD108AA02EB430E2EF8085CB4
:102E000007F120026A4402F8183C0121E3E701B906
:102E100034480CF1010C5FFA8CFCBCF10F0F10D898
:102E200067460CF1020354F8236000220CF12003E2
:102E30006B4403F8182C002EEBD000231946CCE786
:102E40002948F8B108B0BDE8F0810223013308AD8C
:102E500005EB410121F8203C0132D2B2032A13D8FC
:102E6000114608AB03EB420333F8083C4344013BF3
:102E7000B3FBF8F3012BE8D9B3F5806FE6D340F24A
:102E8000FF33E3E70022E9E7BDF80030BDF80210A8
:102E9000626843EA01431361BDF80430BDF80610CF
:102EA000626843EA01435361002315E0656803F15A
:102EB000200255F8221021F4405145F8221065688F
:102EC00055F822100DEB020616F8186C41EA06318F
:102ED00045F822100133DBB20F2BE7D9B2E700BF70
:102EE00000CA9A3B000102040101020430B5A3B0FC
:102EF000044608460B7884F86C300B7CFF2B14D00A
:102F00002B4D427B013A18BF01228368B3FA83F349
:102F10005B099A4210D0264D002D39D163681B6A97
:102F2000069300238DF874301AE08B7BFF2B01D0C1
:102F30001F4DE6E70025E4E7002DEDD16946FFF7D8
:102F4000BFFE0546E8E7626803F1200152F8211050
:102F50009A1D22A800EB820242F8841C0133DBB2E6
:102F60000F2BF0D9606803F07BFF0021606803F04D
:102F70009DFE6946606803F097FC05462046FFF712
:102F80000FFF63680122C3F81822606803F03CFF5A
:102F900094F86C3013B9284623B030BD002384F870
:102FA00055302046FFF7F1FC2046FFF7C6FDF2E75B
:102FB0000001020410B403685C68427902F1200346
:102FC00054F8233003F0773323F07623497841B166
:102FD0004FF480610B43203244F822305DF8044BFB
:102FE00070470021F6E770B50546084616460121F0
:102FF000FFF724FD0446FF2E06D000213046FFF7E0
:103000001DFD044344F080742B685A686B792033AB
:1030100042F8234070BD38B50D460446C8B16B6810
:10302000A72B38BFA723A36029462046FFF7C2FF7E
:103030002B7883B1236859680B6A6079012282403A
:1030400013430B622046FFF78BFE2068FFF7A8FEB4
:1030500038BD01BEE3E7236859680B6A6079012235
:10306000824023EA02030B62ECE70268002A4FD099
:10307000F8B5044643790233002142F8231005686D
:103080002B782BB90679FF2E0FD1A579FF2D22D1F0
:1030900023685A6863792033002142F8231023689B
:1030A0001B7873B300232360F8BD01213046FFF77E
:1030B000B5FC07463046FFF7A9FC064600233A4612
:1030C0001946686803F0FEFF2368002231465868FD
:1030D00004F00CF8D9E72846FFF798FC06460021D3
:1030E0002846FFF79BFC02462568002319466868BE
:1030F00003F0E8FF236800223146586803F0F6FF2A
:10310000C6E7201D02F027FBA01D02F024FBC9E743
:10311000704700002DE9F04B82B00E4690461F46E6
:10312000044658B366B3002323606360A360FF22A4
:103130002271A271009308225849404602F0B8FA61
:10314000814698B396F8492003789A421AD04FF0F6
:10315000000C534D65B9266084F805C00CF1020CD3
:1031600046F82C400A9B5B68A72B38BFA723A360B7
:1031700095BBFF2F20D14FF0000B2FE001BED1E710
:1031800001BED0E74FF0000CBCF10F0F09D80CF1D5
:10319000020356F8233023B10CF1010C5FFA8CFCCA
:1031A000F2E7BCF10F0F05D80025D3E74FF0000C74
:1031B0003B4DCFE73B4DDBE7002300930822374927
:1031C000384602F075FA8346E0B196F84920037854
:1031D0009A4203D0324D02E04FF0000B65B11DB9A9
:1031E00084F80480FF2F0FD1A5B1CDB1002D51D1AE
:1031F000284602B0BDE8F08B0021484602F0B6FA3E
:103200000546ECE7264DEAE70021584602F0AEFA03
:103210000546E9E7A7712068FFF7C2FD0546E4E728
:1032200001214046FFF7FAFB81464046FFF7EEFBDF
:103230000646206801234A460021406803F042FF09
:10324000236801223146586803F050FFFF2F0AD14E
:10325000A27921792046FFF7C6FE0A992046FFF79A
:10326000DAFE0546C2E700213846FFF7D7FB804665
:103270003846FFF7CBFB0646206801234246002173
:10328000406803F01FFF236801223146586803F0AD
:103290002DFFDDE72046FFF7E8FEA9E760D4001028
:1032A000000102040301020470B5044601684B6882
:1032B0005A6891F86C1000293AD102F48072407972
:1032C00000F1200153F8211001F4806112B169BBB3
:1032D000002600E000261D6A01228240110C09042C
:1032E00001B101BE1A622368002283F855202368C9
:1032F00083F856602068FFF748FB2368314658681A
:1033000003F0DAFD236893F85520002AFAD061799A
:10331000586803F03DFE236893F86C202AB95A6878
:103320002B0C1B0403B101BE156270BD0126D2E750
:103330000025E7E710B5044640B12046FFF7B4FF8B
:10334000024661792068FFF7F2FB10BD01BEF4E789
:103350000AB10948704738B504460D460021406857
:1033600003F0C0FD94F84900FFF7DDFB0146284655
:1033700001F01EFA38BD00BF0001020431B94268F5
:10338000536823F080435360002070470048704723
:1033900000010204002850D010B5044643684BB326
:1033A000264B4FF00062C3F89020BFF34F8FBFF35E
:1033B0006F8F90F849200021214B43F82210FFF72E
:1033C000DDFF00B101BEB4F8EC10A1B900224FF44A
:1033D0008031606803F08AFE00234FF48032194682
:1033E000606803F06FFE606803F073FD237853B1EB
:1033F0000023636010BD00222046FFF7A9FF0028CC
:10340000E4D001BEE2E7606803F02AFD94F854308E
:1034100033B900F02BF904F1480001F09FF8E7E719
:1034200094F84C0094F84D1000F0030004F056FCA2
:1034300004F14C0000F0EAFAEBE7704700E100E02D
:103440009C2B0008F8B50E4617461D46044600287A
:1034500057D0F4220021204606F072FC1E2384F887
:103460004830012384F86D3025703368002B4AD032
:10347000002B6CD01A889B78A4F8482084F84A3036
:10348000524B6360B268002A4FD004F14C0392E8BB
:10349000030083E80300002584F854503420002DF5
:1034A0005AD01DB994F85430002B61D1002D00F092
:1034B0008380002D40F0868001224FF480316068C7
:1034C00003F014FE01234FF480320021606803F002
:1034D000F9FD00F0A9F82046FFF757FA94F84920C3
:1034E0003B4B43F822403B4A03219B2001F0B2F9B9
:1034F000394B4FF000621A61606803F085FC284682
:10350000F8BD01BEA5E7FF2FB2D00823334A002142
:10351000384602F0FAF8B8B1002384F8483002784F
:1035200084F8492084F84A30AAE701231A4604F1B6
:10353000480104F14C0002F0ABF9054650B90123F3
:1035400084F854303420AAE70020254DA7E7002056
:10355000234DA4E73420A2E794F84C1094F84D20B2
:1035600001F0030104F03CFB00289AD01D4D9DE7BB
:1035700005F0B4FA1C4AA2FB0032520D1B4B9842D4
:1035800001D2184D95E794F84C00013A94F84D108B
:1035900000F0030004F016FA08B1124D89E794F820
:1035A0004C0094F84D1000F0030004F055FB002887
:1035B0003FF47CAF0B4D7CE77168606803F074F9F1
:1035C000054676E72046FFF7E5FE98E700009D40B8
:1035D0009C2B0008492B001000E100E060D4001093
:1035E000000102040101020483DE1B4300127A0081
:1035F00070B5A8B006460C46154606A90948FFF75F
:103600005FFB08B128B070BD0346019006AA029284
:1036100003958DF81000224601A93046FFF712FFEE
:10362000F0E700BFB0DB001010B5FFF7A2F90446C9
:103630000B4B1B883BB10A4A138801331380204689
:10364000FFF79BF910BD074804F088F9064B1B688B
:10365000DA69D2F8003E43F00043C2F8003EEAE7E0
:10366000A02B00081CDF0010D82D000808B5FFF7BC
:1036700080F90D4B1B8803B901BE0B4A1388013B2F
:103680009BB2138063B9094B1A68D169D1F8003E27
:1036900023F00043C1F8003ED3690022C3F8002E96
:1036A000FFF76BF908BD00BFA02B0008D82D00085C
:1036B00001BE0148704700BF02020204024B0B60CA
:1036C00009231360002070475823000808B540788C
:1036D00005F0F4F908BD000038B5054614468A42E5
:1036E00094BF00230123834209D080F001038A4262
:1036F0002CBF002101218B4201D04DB138BD05F016
:10370000F3FD0549A1FB0431890C05F03BFBF4E70F
:10371000FEF756FEF2E700BF83DE1B432DE9F041C2
:1037200004460A78A2F10D03DBB2012B04D90F2A5B
:103730002FD14E78013600E04E78002004F084FC52
:103740000746002004F04EFC05F098F920FA07F82F
:10375000304605F093F920FA07F763786BB1F1B2C0
:10376000607804F01FFC054663789BB958B93A4667
:1037700041460020FFF7B0FF0CE03A4641460120E9
:10378000FFF7AAFFEBE7424639460020FFF7A4FF08
:1037900000E0024D2846BDE8F08100BF01020204AE
:1037A000F8B505460139072935D8DFE801F00426C8
:1037B000340634343424002600E00226002004F0CD
:1037C00043FC0746002004F00DFC05F057F920FAF1
:1037D00007F720FA06F46B788BB13146687804F06D
:1037E00013FC06466B78BBB978B9224639460020EF
:1037F000FFF772FF10E00326E0E70126DEE722462E
:1038000039460120FFF768FFE7E73A4621460020E6
:10381000FFF762FF00E0014E3046F8BD00020204EF
:1038200008B519B1407804F077FB08BD407804F082
:103830009DFBFAE708B5407804F086FB08BD08B5A3
:1038400090F800C01CF0020F06D14A1E41780CF01F
:10385000030004F0B7F808BD00234A1E41780CF0BD
:10386000030004F013F9F6E708B50378417803F094
:10387000030005F04CF908BD08B531B10378417873
:1038800003F0030004F0E8F908BD0378417803F081
:10389000030004F023FAF7E708B50378417803F052
:1038A000030004F04DFA08BD004870479CDC00108E
:1038B0002DE9F04182B007460D469046084601F0DA
:1038C000C9FFC6B2002401E00134E4B2B44213D20D
:1038D00005238DF804308DF805508DF8064001A8B9
:1038E00000F0F8FD03460028EED13D707C70012207
:1038F000BA70C7F8048000E0024B184602B0BDE879
:10390000F08100BF020E020430B583B00C460546BC
:1039100078B184B105238DF8043023788DF8053013
:1039200063788DF8063001A800F0D4FD28B103B00B
:1039300030BD01BEEDE701BEECE7226863682A6096
:103940006B600123AB70F2E708B5034648B11A7803
:10395000122A08D0032A0AD95A68126818469047D2
:1039600008BD01BEF3E71846FFF764FFF8E7184605
:10397000FFF792FFF4E710B5034648B11878122814
:1039800008D003280AD9586844681846A04710BDD3
:1039900001BEF3E71846FFF743FFF8E71846FFF7C5
:1039A0006BFFF4E710B5044668B12046FFF7CCFF83
:1039B00098B12378122B08D0032B0AD963689B682F
:1039C000204698470AE001BEEFE72046FFF77EFE5B
:1039D00004E02046FFF748FF00E0002010BD08B5D6
:1039E000034648B11A78122A08D0032A0AD95A681D
:1039F00012691846904708BD01BEF3E71846FFF765
:103A0000CFFEF8E71846FFF71AFFF4E710B582B0CB
:103A1000044690B1A37803B901BE05238DF80430A4
:103A200023788DF8053063788DF8063001A800F012
:103A300095FD0023A37002B010BD01BEEAE708B5F2
:103A4000034648B11A78082A08D0092A00D001BED6
:103A5000184600F0C1FB08BD01BEF3E7184600F0B0
:103A600017F9F8E708B5034648B11A78082A08D0CC
:103A7000092A00D001BE184600F054FC08BD01BE62
:103A8000F3E7184600F0A4F9F8E708B5034648B193
:103A90001A78082A08D0092A00D001BE184600F07A
:103AA00051FB08BD01BEF3E7184600F0D3F8F8E774
:103AB00038B5EFF30583103BDBB2343BDBB2032BAD
:103AC00000D901BE032B1CD901BEFF22032B00D954
:103AD00001BE032B01D901BEFF231C4603EB82026A
:103AE000234951F82250032B00D901BE230203F1D0
:103AF000804303F5281341F28C029958002318469D
:103B000003E00022E2E70133DBB251B1072B08D812
:103B100001229A401142F6D0164A32F8132010437F
:103B2000F1E710F0010F0FD0B5F8643063B1013B3D
:103B30009BB2A5F864303BB940F002006B7D012BCD
:103B400013D00123A5F86430E96E01402B6F1BB13F
:103B500011B189B2686F9847032C00D901BE2402C5
:103B6000054BFF221A511B5938BDAB8FEAE700BF46
:103B7000A42B0008DCDC001080102A4070B504463D
:103B800000F11401443002F0F7F800284FD1221D53
:103B9000A1782A4802F08CF800284AD1A378032B98
:103BA00000D901BE254A02EB032341F28801FF2020
:103BB0005850136843F000431360A378032B00D9D7
:103BC00001BE1B021E4AD35813F0180F1AD1607899
:103BD0008000C0B2A3781844C0B200F13406354664
:103BE000E36EDBB90321174A284600F033FE10BB11
:103BF00006F01F066D09012303FA06F6124B43F87F
:103C0000256015E0A378032B00D901BE1A020C4BE6
:103C10001344FF221A601B680C4809E006F1604358
:103C200003F5614393F800134909C9B2DBE708487B
:103C300070BD0748FCE70648FAE700BF00002A40CD
:103C400080102A40B13A001000E100E003060204AF
:103C5000010602048378032B00D901BE0449103306
:103C60001B02CA5842F00042CA500020704700BFF1
:103C700000002A40054B9B68DBB2817801228A4014
:103C80001A4214BF01200020704700BF00002A40E4
:103C900038B504460D46FFF7EDFF002840F085805B
:103CA0006B69B3F5803F00F28280012B12D91BB102
:103CB0002A69B2EB034F7CD82B682362AB6863623E
:103CC000AB7B082B0CD0102B40D0202B73D10223C0
:103CD000A37607E02A69B2F5803FE8D9384857E073
:103CE0000023A37600232377E376A36E022B30D044
:103CF000012B31D004F1440323642B7E012B2DD9F9
:103D00000123E375B5F90430A362B5F90C30E36221
:103D10006B6933B32A69B2FBF3F103FB1123002B68
:103D20004BD1022363776A6922632B69B3FBF2F3F9
:103D3000E363B5F904306A6902FB03F36363B5F921
:103D40000C306A6902FB03F3A3630EE00123A37640
:103D5000C8E70123E376CDE72377CBE70023E375BC
:103D6000D0E7012363772B6923636B691BB12B7E3B
:103D70007BB1022B0DD00123A4F8643002236375BC
:103D8000B4F878300BB9022323762046FFF7F6FE0D
:103D900038BDE36BA4F8643001236375B4F8783060
:103DA000002BF2D101232376EFE70648F0E7044821
:103DB000EEE70348ECE70448EAE70448E8E700BF19
:103DC00008060304050602040006020404060204B1
:103DD00010B50446FFF74EFF20BB144B1B781BBBEE
:103DE0006278A3789200D2B21344DBB20233DBB222
:103DF0000F49CC5CCA56002A0DDB0E4AD05C40EA63
:103E00000420022140F0804005F0BEFC0A4B98429D
:103E100006D0002010BD02F06F0242F01004ECE763
:103E20000648F7E70548F5E70548F3E7B42B00082F
:103E3000A8D5001020DB00100200CE000606010409
:103E4000031A020438B5EFF305839BB2A3F1100205
:103E500092B2A3F1480189B21C2907D9A3F16500E8
:103E600080B21C280CD901BEFF2000E000201C29D4
:103E700008D9653B9BB21C2B6FD901BEFF2303E021
:103E80000120F4E7383AD3B2C0EBC00200EB820263
:103E90001D4613443E4A52F82320002860D13D4C71
:103EA0003C4B9C425ED03C4B1B6893F836309D42A5
:103EB00034BF0023012303B101BE374B1968B1F8A9
:103EC0005E302344B1F8601001FB05335B6803F0FA
:103ED0000F03082B00D901BE082B4CD82F4931F80D
:103EE000131011F0010F0FD0B2F8643063B1013B31
:103EF0009BB2A2F864303BB941F00201537D012B23
:103F00003BD00123A2F86430D36E1940136F1BB16C
:103F100011B189B2506F98471E4B9C422FD01E4B57
:103F20001B6893F836309D4234BF0023012303B150
:103F300001BE194B1A68B2F85E302344B2F8601023
:103F400001FB053301211961B2F85E301C44B2F85F
:103F5000603003FB0544236938BD553AD3B293E77B
:103F60000F4C9DE70C4B1B6893F835309D4234BFD6
:103F7000002301239FE70021B3E7938FC2E7064B9D
:103F80001B6893F835309D4234BF00230123CEE7F0
:103F9000B82B000800002840D82D0008ECDC0010E9
:103FA0000000294038B5044600F11401443001F006
:103FB000EFFC002840F0B1806378002B5DD15A4DB2
:103FC000221DA178284601F0E5FD002840F0A780D9
:103FD000A178554B9D4252D0544B1B6893F8362024
:103FE000914234BF0022012202B101BE4F4B1A6838
:103FF000B2F85E302B44B2F8602002FB013301229C
:104000009A612B6843F000432B60A178464B9D4298
:104010003ED0464B1B6893F83620914234BF0022B5
:10402000012202B101BE414B1A68B2F85E302B4446
:10403000B2F8602002FB01331B69043B012B30D92D
:10404000637813B9A5781C2D57D9012B57D001BE21
:1040500040F2FF35E36E002B56D10321344A284647
:1040600000F0F8FB00285CD105F01F026D09012368
:104070009340304A42F8253052E02F4DA0E72B4BB9
:104080001B6893F83520914234BF00220122ABE730
:10409000264B1B6893F83520914234BF0022012241
:1040A000BFE7A178204B9D421ED0204B1B6893F8A0
:1040B0003630994234BF0023012303B101BE1B4BAC
:1040C0001A68B2F85E302B44B2F8600000FB01338E
:1040D00001201861B2F85E301D44B2F8603003FB75
:1040E00001552B6915481BE0104B1B6893F83530C0
:1040F000994234BF00230123DFE73835AAE7A578CA
:104100001C2DA4D85535A5E705F1604303F561439F
:1041100093F800134909C9B2A0E7094800E008482C
:1041200038BD0748FCE700BF00002840D82D000834
:10413000453E001000E100E00000294003060204B3
:10414000010602044378EBB9144A837813498A4282
:104150001AD01349096891F836108B4234BF0021F8
:10416000012101B101BE0E490968B1F85E00B1F844
:104170006010024401FB03F3D15841F00041D150DB
:1041800000207047074AE0E70549096891F83510B3
:104190008B4234BF00210121E3E700BF000028402B
:1041A000D82D00080000294043786BB9074B084A16
:1041B0001268B2F85E100B448178B2F8602002FBFE
:1041C00001335868C00F7047024BF0E700002840E9
:1041D000D82D00080000294038B504460D46FFF7E9
:1041E000E3FF002840F08C806B69B3F5807F00F21C
:1041F0008980012B1BD923B12A69B2EB032F00F26E
:1042000083802B682362AB68636204F144032364F8
:104210002B7E012B11D90123E375AB7B082B0FD02B
:10422000102B50D0202B71D1022363760AE02A692B
:10423000B2F5807FDFD9374844E00023E375ECE72F
:10424000002363760023E376A376A36E022B3DD092
:10425000012B3ED06B6933B12A69B2FBF3F103FB4A
:104260001123002B54D1B5F90430A362B5F90C30F9
:10427000E3626B697BB3022323776A6922632B694C
:10428000B3FBF2F3E363B5F904306A6902FB03F3AD
:104290006363B5F90C306A6902FB03F3A3636B69CE
:1042A0001BB12B7E03B3022B1ED00123A4F8643074
:1042B00002236375B4F878300BB9022323762046C5
:1042C000FFF770FE38BD01236376BBE70123A376B9
:1042D000C0E7E376BEE7012323772A692263E3631D
:1042E00000236363A363DAE7E36BA4F8643001237C
:1042F0006375B4F87830002BE1D101232376DEE733
:104300000548DFE70348DDE70248DBE70348D9E774
:104310000348D7E708060304050602040006020462
:104320000406020410B50446FFF73EFF38BB164BE7
:104330001B7833BB6378A278C3EBC30103EB810323
:1043400052FA83F3DBB20633DBB21049CC5CCA56B7
:10435000002A0DDB0E4AD05C40EA0420022140F026
:10436000804005F011FA0B4B984206D0002010BD9A
:1043700002F06F0242F01004ECE70748F7E7064846
:10438000F5E70648F3E700BFA02C0008A8D5001009
:1043900020DB00100200CE0006060104031A02040E
:1043A00070B504280DD00D46114602463C4C34F839
:1043B00010E0441C1D2C07D8E4B2394E36F81440E6
:1043C00004E00D250520F0E740F231144FF0010C18
:1043D0000CFA02FC334A0CEA02023AB9AE44A3F8E2
:1043E00000E01B88A34258D2002070BDC21E182ACC
:1043F00032D8DFE802F00D313431310F2531293167
:10440000313131312B312D3131313131312F2700E3
:10441000254A00E0254A1C80002AE2D003381828EB
:1044200036D8DFE800F01E353835351E2F353135EA
:10443000353535351E351E353535353535331E00A8
:104440001B4AE8E71B4AE6E71B4AE4E71B4AE2E7A8
:104450001B4AE0E71B4ADEE701BE0022DBE71A4AFF
:10446000D9E70126B542BCD232F81500704411FAE2
:1044700080F11980691CB142B3DA32F811407444FA
:10448000A4B2AEE70226EDE71026EBE70226E9E745
:1044900001BE0026E6E71A26E4E70C48A5E700BFC0
:1044A00070DD0010280B0A0C00DD001038DD001054
:1044B0003CDD00106CDD001040DD001060DD001000
:1044C00064DD001068DD001004DD0010000E020441
:1044D00000207047F0B583B004460027FEF749FA84
:1044E00006460DF10603A27861782078FFF758FFA1
:1044F000054668B9BDF80630C3F3C70203F00703E9
:104500001449895C012202FA03F3194218BF1746C5
:1045100005B9EFB92DB13046FEF72FFA284603B0A2
:10452000F0BD0DF10603A27861782078FFF738FF1F
:1045300005460028EFD1BDF80630C3F3C70103F0EC
:104540000703044801229A40435C13434354E2E7C3
:10455000014DE0E7A42C0008010E020430B583B041
:104560000446FEF706FA05460DF10603A2786178C7
:104570002078FFF715FF024660B9BDF80630C3F397
:10458000C70003F00703074C01219940235C23EA8D
:104590000103235402B101BE2846FEF7EEF903B031
:1045A00030BD00BFA42C000802460023184603B10A
:1045B000704702B118460133DBB2F8E710B5044684
:1045C000FFF7F2FF204610BD002001E00130C0B22D
:1045D000102805D8044B1B5C002BF7D040B2704765
:1045E0004FF0FF30704700BF14D6001038B50446B6
:1045F0000D46FFF7E9FF114B1B5D83B1104B1A68A5
:104600009368B2F870100B44201A1030B2F8721090
:1046100001FB00F000EB8501C858C0B238BD084B63
:104620001A689368B2F870100B44B2F8720004FB79
:1046300000F000EB8500C058EFE700BF14D6001073
:10464000D82D00082DE9F84304461E469DF8208029
:104650009DF82470224B1B5CC3B1411ACCB220469A
:10466000FFF7ACFF46EA00262046FFF79DFF46EA2B
:10467000004040F0804040F4805027B14246002185
:1046800004F0F4FF23E005F03FF820E01546FFF7C3
:1046900095FF4FEA002945EA00252046FFF784FFF1
:1046A00045EA004549EA060949EA004949F08041DE
:1046B0007FB90C4B1A689368B2F870100B44B2F8CB
:1046C000720000FB04F404EB86040020E050BDE817
:1046D000F88343460022284604F06CFFF7E700BF4A
:1046E00014D60010D82D00082DE9F04782B00C46F2
:1046F0009046C0F3470600F00107FFF765FF8146CB
:10470000244B1D5D1B57002B04DB234B13F804A027
:10471000002416E005F07F0555FA80F5EDB2F4E7C8
:10472000B8F1010F14BF00230123019300975346F2
:10473000E2B25FFA89F12846FFF784FF22E00134F4
:10474000A4B22A46154B33F81530A34219D9144B9D
:1047500053F825301B5DB342F1D1124B9B5C1BB16A
:104760001FFA8AF3A34210D1B8F1020F04D05146C8
:104770002846FFF73BFF50B9B8F1000FD0D1002019
:1047800000E0094802B0BDE8F0870748FAE70748AB
:10479000F8E700BFA8D5001020DB00108CDB00106C
:1047A0001423000814D60010010D0204000D0204A9
:1047B00008B50222FFF798FF08BD000070B582B06F
:1047C0000D468378772B16D8DA08134909688E6965
:1047D00006EBC216C27803F00704009201232A46B2
:1047E0002146304601F052FC0A2D08D00B2D0CD08A
:1047F000002002B070BD084A12689669EAE70122FB
:104800002146304601F09CFCF2E70022214630466A
:1048100001F096FCECE700BFD82D000810B582B07F
:104820000146772810D8C308094A1268906900EB3E
:10483000C310002400940123082201F0070101F0B5
:1048400025FC204602B010BD014B1B689869F0E7BB
:10485000D82D000800B583B0ADF8000001911146D5
:10486000684604F0B7F903B05DF804FB123820285D
:104870002AD8DFE800F01F292929292929292929EF
:104880002929292929292929292929112C131517E9
:10489000191B1D2123252700002070470220704787
:1048A000032070470420704705207047062070479A
:1048B0000720704708207047092070470A2070477A
:1048C0000B2070470C20704701BE0020704701206C
:1048D0007047000038B50346084850F823400848A0
:1048E00050F8235044B12DB1002318460BB920468F
:1048F000A84738BD0123F8E70123F6E7002D00089B
:10490000CC2C00082DE9F04105468846084600F009
:1049100089FF06460024012718E002222946304676
:10492000FFF7D8FF0136F6B2B442F6D8B8F1020F5D
:104930001BD0B8F1080F18D0B8F1010F18D1BFB1D2
:104940000D4B01221A7013E00134E4B20C2CEDD8A7
:10495000324629462046FFF7BDFF07460028F3D11F
:10496000B8F1010FF0D10026DEE7034B00221A70E8
:104970003846BDE8F08100BFCB2C000808B5EFF346
:104980000580103800B240F2FF33984205D0FFF79F
:104990006DFF034B53F8200008BD0020FCE700BF6B
:1049A000002D00082DE9F04383B080460E461746DF
:1049B0009946002416E099F802206B789A4201D0BB
:1049C000002325E0012323E017238DF80430735CD6
:1049D0008DF805306B788DF8063001A8FFF77AFD69
:1049E000C8B10134BC421AD2A10006EB840595F887
:1049F00002C0C445F5D1B9F1000FE5D099F80030F7
:104A0000172BE1D199F80120735C9A42D3D000238F
:104A1000002BE6D004E001A8FFF7A0FD00E0002590
:104A2000284603B0BDE8F0832DE9F04383B0074684
:104A30000D4616460024A14600E00134B44220D2BF
:104A40004FEA840805EB840393F802C0BC45F4D117
:104A500017228DF8042015F824208DF805205B78A6
:104A60008DF8063001A8FFF735FD0028E5D101A833
:104A7000FFF774FD15F808200123934049EA030964
:104A8000DBE7484603B0BDE8F0830000014B18782F
:104A9000704700BFCB2C000808B5124B43F820101C
:104AA000114B43F8202000231A4601E00133DBB20A
:104AB0000C2B08D80B4850F823000028F6D0012A08
:104AC00007D00132F2E72AB901B101BE074800F070
:104AD0006DF908BD012AFCD10029FAD0034800F085
:104AE00059F9F6E7002D0008CC2C00087C230008BB
:104AF0002DE9F0410446884616461F4604E001228F
:104B000088F80020E2B1E46840F28975AC4217D021
:104B10002568002DF7D094F804C036EA0C03F2D1D2
:104B2000637937EA0303EED0A26839463046A847D6
:104B30000028E4D1012F01D00122E1E70022DFE7C4
:104B40002046BDE8F08170B504460D46164600E0EB
:104B5000E468AC420FD02368002BF9D0217936EA03
:104B60000102F5D1627912F0020FF1D1A26802219F
:104B700030469847ECE770BD38B505460C46FDF762
:104B8000F8FEE36813B1FDF7F8FE38BD2B68E3606B
:104B90002C60F8E738B504460D46FDF7EAFE01E063
:104BA00003F10C04236840F28972934205D0AB42B2
:104BB000F6D1EB6823600023EB60FDF7DEFE38BD25
:104BC0002DE9F04182B00D4600F038FE0446012385
:104BD0008DF80730022808D0082806D0102804D005
:104BE0001A4B1E681A4B1F6803E0184B1F68184BBE
:104BF0001E6823462A460DF107013846FFF778FF65
:104C000080469DF8073063B930469DF807300BB9F0
:104C1000012C0ED09DF80730B3B1002002B0BDE8E2
:104C2000F08123462A460DF107013046FFF760FF69
:104C3000EBE72A4601463046FFF785FF2A46414604
:104C40003846FFF780FFE5E70248E7E790230008D2
:104C50008C230008FF00420038B50C461021204686
:104C6000FFF7AEFF0546042C01D0284638BD0020D2
:104C700003F024FF0349A1FB0031890C012004F05B
:104C800081F8F2E783DE1B4338B50C460821204645
:104C9000FFF796FF0546082C01D0284638BD0020B6
:104CA00003F00CFF0349A1FB0031890C002004F044
:104CB00069F8F2E783DE1B4308B508460421FFF7D5
:104CC0007FFF08BD10B50446FFF77AFF042C02D021
:104CD000082C17D010BD4FF0E0231B6913F0010F13
:104CE00004D00E4B1B7813B1012300E000230C4AC3
:104CF0001370002BEED04FF0E022136923F0010374
:104D00001361E7E7064B1B78002BE3D04FF0E0225E
:104D1000136943F001031361DCE700BF362D00087F
:104D2000D02D000808B50846012902D1044B1B8884
:104D30001BB90221FFF7C6FF08BD0248FCE700BF10
:104D4000342D0008FF00420008B508460121FFF796
:104D5000B9FF08BD38B584468E4615460C4C0FCCBD
:104D6000CCF80000CCF80410CCF80820CCF80C30BB
:104D700007CCCCF81000CCF81410CCF81820CCF8E4
:104D800000508CF804E0604604F07EF938BD00BFA6
:104D9000FCDD001008B5014618B10348FFF7ECFE32
:104DA00008BD01BEF9E700BF9023000808B5014621
:104DB00018B10348FFF7EEFE08BD01BEF9E700BFDA
:104DC0009023000808B504F055FB38B9164A0021B5
:104DD0001648FFF7BFFF20B9154808BD04F09EF93B
:104DE000F4E7144A01211448FFF7B4FF08B910484A
:104DF000F3E7124A02211248FFF7ACFF08B90C484A
:104E0000EBE7104A03211048FFF7A4FF08B9084850
:104E1000E3E70E4A04210E48FFF79CFF08B100208B
:104E2000DBE70348D9E700BF494D0010B02D00086B
:104E3000011A0204254D0010402D0008B94C001045
:104E40005C2D0008894C0010942D0008594C00106E
:104E5000782D0008024600B101BE024B43F8221033
:104E6000704700BFCC2D0008024600B101BE024BC6
:104E700053F82200704700BFCC2D000808B503F09E
:104E8000DDFE002008BD012803D0022803D1032045
:104E9000704702207047002070470138032809D866
:104EA000DFE800F0020B040602207047062070477E
:104EB0000820704701BE02207047042070478142DD
:104EC00006D9091A642303FB01F1B1FBF0F0704726
:104ED000411A642303FB01F1B1FBF0F070470000BD
:104EE0002DE9F04F87B004460D46174698469DF8C9
:104EF00040901E23037100234373FF23C371037289
:104F000043728372994218D0FF2F1AD0FF2D02D11D
:104F1000FF2F00F0DF80FDF72CFD8246FF2D15D11D
:104F20004FF0FF36FF2F18D1B8F1FF0F1CD1B9F1A8
:104F3000FF0F20D136B300232BE09945E4D0664E15
:104F40009CE0B8F1FF0FE1D0634E97E01322634974
:104F50002846FFF769FD0646E4E713226049384614
:104F6000FFF762FD0640DFE712225E494046FFF789
:104F70005BFD0640DBE712225B494846FFF754FD24
:104F80000640D7E75046FDF7F8FC534E76E0013374
:104F9000DBB226FA03F212F0010FF8D017228DF8D7
:104FA00014208DF8153000238DF8163005AB132230
:104FB0004A492846FFF7F6FC834605AB13224849C9
:104FC0003846FFF7EFFC029005AB122245494046F8
:104FD000FFF7E8FC019005AB122243494846FFF772
:104FE000E1FC0390FF2D02D0BBF1000F0DD0FF2F8D
:104FF00001D0029B4BB1B8F1FF0F01D0019B23B14F
:10500000B9F1FF0F02D0039B03B901BE05A8FFF75A
:1050100061FA06465046FDF7B0FC7EBB059BA380B7
:105020001B0CA371FF2D2DD10EB9FF2F33D15EB90B
:10503000019B4BB10821184600F098FB064618B9B1
:105040000123E37284F809805EB9039B4BB106210A
:10505000184600F08BFB064618B90123237384F829
:105060000A9056B9119BFBB10023637304F110033E
:10507000119A92E8030083E8030016B3304607B0A4
:10508000BDE8F08F0621584600F070FB0646002868
:10509000CAD12572C8E70821029800F067FB0646CE
:1050A0000028C4D1E771C2E701231A46211D04F18B
:1050B000100000F0EDFB0646B0FA80F35B09637365
:1050C000DBE7217C627C01F00301607902F088FD5E
:1050D0000646D3E7004ED1E7001F02045CD500105E
:1050E00010D5001080D40010C8D400102DE9F8436A
:1050F0000446037AFF2B0CD0D908772B05D84C48EF
:105100000068866906EBC11604E0494909688E69A2
:1051100000E00026A17AFF290ED0207BD0B1C8087C
:10512000772905D8424D2D68AF6907EBC01704E019
:105130003F480068876900E0002703F0070501F099
:105140000708013A072A65D8DFE802F0064F6468CD
:105150006464644F0027F0E7A14659F8180B4946EC
:1051600002F068FB10F0010F01D0002054E0494626
:10517000206802F05DFB10F0010F51D12168D1F8D9
:105180000832C3F30803D1F80822C2F3C032D34275
:1051900048D1D1F80833C3F30803002B44D176B1CA
:1051A0002946304600F0ACFF84F898002946304686
:1051B00000F0D4FF00222946304600F02FFF77B1DF
:1051C0004146384600F09CFF84F899004146384635
:1051D00000F0C4FF00224146384600F01FFF494658
:1051E000206802F081FA012016E02268136843F07B
:1051F000004313602EB194F898202946304600F001
:105200000DFF9FB194F899204146384600F006FF03
:10521000012001E001BE0020BDE8F8830120FBE78A
:105220000020F9E70020F7E70020F5E70120F3E789
:10523000D82D0008F8B5314D2E68FFF79FFB286088
:10524000002859D00446014651F8180BD0F88C5F5D
:10525000D0F8CC7F02F0F0FA15F0200F09D02368C7
:105260002022C3F8802FD3F8803FE36C0BB11046A7
:10527000984715F0400F09D023684022C3F8802FCB
:10528000D3F8803FE36C0BB12020984715F0010F55
:1052900004D0E36C13B14FF48070984715F4007F8D
:1052A00013D023684FF40072C3F8802FD3F8803FE7
:1052B0002268D2F8883F43F4007123F4EE6323F0B0
:1052C000030303B101BEC2F8881F17F0400F09D0D5
:1052D00023684022C3F8C02FD3F8C03FE36C0BB162
:1052E0001020984717F0010F04D0E36C13B14FF46E
:1052F00000709847014B1E60F8BD00BFD42D000818
:1053000038B50C46154603F0E9FB05FB04F4B0FB89
:10531000F4F038BD2DE9F84380460E460824FF27F7
:10532000A14601E00134E4B2102C15D806FB04F5C7
:1053300003F0D4FB00EB55012246B1FBF5F14046EA
:10534000FFF7DEFF01463046FFF7B9FDC0B28742E6
:10535000E8D90746A146E5E74846BDE8F8830000DE
:1053600070B5044642791A4B53F82200214641F8A1
:10537000540B04F1180202F007F8054608B128465C
:1053800070BD0023C4F89C30C4F8A030C4F8943039
:105390006379104E104A032136F91300FFF75AFAC9
:1053A000637936F91330002B07DB03F01F015B092B
:1053B00001228A40094941F82320094A214660799F
:1053C000FFF76AFB2268136843F000431360D6E7D7
:1053D000ACDD0010E0DD00103552001000E100E00F
:1053E000ED50001010B5044688B1206840B104F1BA
:1053F000180102F079F9206802F052F900232360C5
:1054000023791E2B05D194F8A43023B310BD01BE1F
:10541000EBE762791B4B33F91230002B0CDB03F006
:105420001F015B0901228A402033174941F82320DC
:10543000BFF34F8FBFF36F8F002211466079FFF7E4
:105440002BFB94F8A43013B11E232371DBE7201D3E
:10545000FFF784F8F8E7E01D00F07DF904F108009B
:1054600000F079F904F10A0000F075F904F109007F
:1054700000F071F9637B002BC8D004F11000FEF737
:10548000C5FAC3E7E0DD001000E100E0437B0BB9A3
:10549000334870472DE9F04704460E4690460546CE
:1054A000002155F8100B02F01FF900221146284682
:1054B000FEF761FA30B12268136843F000431360CD
:1054C000BDE8F08704F1040931464846FFF722FFA2
:1054D0000746A06500FB06F603F000FB00EB560054
:1054E000B0FBF6F631462846FEF779FA824640BB15
:1054F0003A4631464846FFF703FFB8F1000F01D0A6
:10550000C8F80000002201212846FEF734FA94F87A
:10551000703013B34FF48033E26D082A01D84FF492
:10552000006A43EA0A03013F07F00F071F4323689D
:1055300047F000771F602268136843F00043136050
:10554000BEE7002201212846FEF715FA22681368FB
:1055500043F0004313605046B2E75346DCE700BF18
:10556000061F0204F8B506460F461546FFF78EFAE9
:10557000A8B93368D3F840332C4602E03368D3F837
:105580004033B3F1FF3F07D1002DF7D04CB10120DC
:1055900003F054FB013CF1E73B700020F8BD0248EA
:1055A000FCE70248FAE700BF031A0204021F0204E4
:1055B00038B504460D46FFF769FA28B1044806E0FD
:1055C0002946206801F0D1FD0028F9D0002038BD1F
:1055D000031A020408B5034630B139B153F8180B69
:1055E00002F08EF8002008BD01BEF6E701BEF5E727
:1055F0002DE9F04182B00C46164698460A9F0546B2
:10560000002844D0A8220021284604F099FB099BD9
:1056100001939DF8203000934346324621462846A8
:10562000FFF75EFC044618BB05F1540C1F4C0FCC71
:10563000ACE80F000FCCACE80F000FCCACE80F00CB
:1056400094E80F008CE80F00EB7A85F874305FB1B6
:105650003B68EB653879FFF720FC85F86100387A04
:10566000FFF711FC85F862002846FFF779FE044633
:1056700044B92FB1F96819B13A692846FFF7AAFF72
:105680006B7B33B96CB9204602B0BDE8F08101BE36
:10569000B8E700224FF4E1312846FFF7F7FE044651
:1056A000F0E72846FFF79EFEEDE700BF18DE00108A
:1056B00070B59DF81060FF2803D005464FF0000C30
:1056C0000DE0002020E036B993F802E04478A645CA
:1056D00017D0002400E00124B4B90CF1010C94456A
:1056E00011D24FEA8C0401EB8C0090F802E0AE4539
:1056F000F3D14BB193F801E00C5DA645E3D0002453
:10570000EAE70124E8E7002070BD2DE9F04383B00B
:105710008046894616461F46002400E00134BC42FC
:1057200014D206EB840595F802C0C445F6D18DF875
:10573000049016F824308DF805306B788DF806301B
:1057400001A8FEF7C7FE0028E8D100E000252846A2
:1057500003B0BDE8F08310B504460078FF2800D1FF
:1057600010BD00F037F8FF232370F9E770B584B05F
:1057700004460D4683780B228DF80020DA088DF858
:10578000012003F007038DF80230009BADF80C30C8
:105790001B0C8DF80E30039BADF808301B0C8DF8F8
:1057A0000A30029BADF804301B0C8DF8063001A8BE
:1057B000FEF790FE064610B1304604B070BD294693
:1057C0002046FEF7FBFF06460028F5D001A8FEF7AD
:1057D000C5FEF1E710B584B00446FFF71FF800B12D
:1057E00001BE0B238DF80030E3088DF8013004F082
:1057F00007048DF80240009BADF80C301B0C8DF8AF
:105800000E30039BADF808301B0C8DF80A30029B5C
:10581000ADF804301B0C8DF8063001A8FEF79EFE93
:1058200004B010BD431E072B05D8DFE803F00606C1
:1058300004060404040601BE01207047431E072B22
:1058400005D8DFE803F0060604060404040601BEDA
:1058500001207047122817D8DFE800F00A180C0E54
:1058600016161616161616161612161016161400FA
:1058700008207047042070470120704702207047BD
:10588000062070470620704701207047102070479F
:105890002DE9F04383B0044616461F460B4691B1EE
:1058A00019780539182943D8DFE801F03A42424215
:1058B0004242420F424242424242420F1C42422A6C
:1058C00042424242230001BEEAE7274B93E803002D
:1058D00002AB03E9030069462046FEF715F803B062
:1058E000BDE8F083214B93E8030002AB03E903001A
:1058F000F1E71F4B93E8030002AB03E90300EAE77B
:105900005B7833B91B4B93E8030002AB03E9030058
:10591000E1E7164B93E8030002AB03E90300DAE783
:1059200001BE1548DBE74FF001090EE001BE0EE0B5
:105930000025A9461148032DD1D8114B13F8058035
:105940004645F0D0B9F1000F0CD0002CEED0FDF799
:10595000ABFF024641462046FDF7AAFF0028BED015
:10596000002FBCD00135E6E754DC00105CDC0010F1
:1059700064DC00106CDC001002020204020E02045F
:1059800058DE0010014B1860704700BFD82D00088A
:105990008446002800F0F080002900F0EF800B78AA
:1059A000032B00D901BE4B78032B00D901BE8B78A5
:1059B000032B00D901BE0B79032B00D901BE8B79D3
:1059C000012B00D901BECB79012B00D901BECB78C8
:1059D000012B00D901BE4B79022B00D901BE0B7AF5
:1059E000032B00D901BE0B7803F003034A78920021
:1059F00002F00C0213438A78120102F030021343C2
:105A00000A799201D2B213438A79920602F0806237
:105A10001343CA79D20602F000621343CA78120611
:105A200002F0807213434A79120702F04052134386
:105A30000A7A43EA8273CCF80030CB68CCF80430A1
:105A40000B69CCF808300B7A032B00F29980DFE861
:105A500003F002072D73CB6ACCF80C30002070479E
:105A60004B6903F50063B3F5805F00D301BE8B691A
:105A700003F50063B3F5805F00D301BECB69013B42
:105A8000FF2B00D901BE4B69C3F30B0388693E4A63
:105A900002EA00321343CA69013A43EA0263CCF8CE
:105AA0000C30CB6ACCF81030002070474B6903F5FE
:105AB0000063B3F5805F00D301BE8B6903F500631B
:105AC000B3F5805F00D301BECB69013BFF2B00D94A
:105AD00001BE0B6A03F50063B3F5805F00D301BE1E
:105AE0004B6A03F50063B3F5805F00D301BE8B6A98
:105AF000013BFF2B00D901BE4B69C3F30B028B693D
:105B0000214800EA03331A43CB69013B42EA0362AE
:105B1000CCF80C200B6AC3F30B034A6A00EA02308C
:105B200003438A6A013A43EA0263CCF81030CB6A35
:105B3000CCF8143000207047144B1B6893F82E30BB
:105B40001F2B1FD94B6903F50063B3F5805F00D3AA
:105B500001BECB69013BFF2B00D901BE4B69C3F3EA
:105B60000B03CA69013A43EA0263CCF80C30CB6AF2
:105B7000CCF8103000207047054870470448704743
:105B8000034870470248704700F0FF00D82D000816
:105B900001004E0000287DD08446002A7CD0136886
:105BA000002B7BD03F4B98425CD03F4B1B6893F857
:105BB00036308B4294BF00230123002B70D030B5C8
:105BC0009368032B00D901BE1468364B9C4552D014
:105BD000354B1B6893F83630994234BF00230123BC
:105BE00003B101BE304B1868B0F85E306344B0F8C2
:105BF000605005FB0133DC60B0F85E30B0F8600047
:105C0000634400FB01339868000C0004986013792A
:105C1000002B39D0244B1B6893F86340012303FA0F
:105C200004F493682048006890F86250AB404FF04D
:105C3000030E0EFA05FE03EA0E032343147B2CB376
:105C40004FF000442343527B12B30424B0F85E208B
:105C50009444B0F8602002FB01F123434CF801307A
:105C6000002030BD104B1B6893F835308B4294BF39
:105C700000230123A1E70C4B1B6893F835309942B0
:105C800034BF00230123ABE70024CAE70024D9E78F
:105C90000024DBE705487047044870470348704715
:105CA0000248704700002840D82D000801004E002F
:105CB000844628B3032925D832B3136833B3536815
:105CC000032B00D901BE10680CEB012303F58153AF
:105CD000186053681B0203F44073107A60B14FF0F0
:105CE00000400343527A4AB104221343103109029F
:105CF0004CF80130002070470020F2E70022F4E762
:105D00000348704702487047014870470048704791
:105D10000100FE000368C3F3027213F0E04F00D1EC
:105D200001BE042A07D00139B1F5803F00D301BE7E
:105D300089B2C16070474B1EB3F5004F00D301BE5E
:105D40004900013989B281607047024648B1136841
:105D5000C3F30273042B0DD8DFE803F005090B072A
:105D6000050001BEF3E7D1607047116170475161D2
:105D70007047D16170470000002800F0B88038B546
:105D80000C460546002900F0B4800B78032B00D99F
:105D900001BE6378032B00D901BEA378032B00D981
:105DA00001BE2379032B00D901BEE379012B00D971
:105DB00001BE237A012B00D901BEE378012B00D963
:105DC00001BEA379022B00D901BE637A042B00D94E
:105DD00001BE237803F003036278920002F00C0204
:105DE0001343A278120102F0300213432279920188
:105DF000D2B213436279002A36D04FF48072134333
:105E0000E279920602F080621343227AD20602F00F
:105E100000621343E278120602F080721343A27903
:105E2000120402F440321343627A120702F0E04295
:105E300013432B60E2686A60627A042A04D0226904
:105E40001B0F042B12D0AA60637A8BB9E16A284633
:105E5000FFF77BFF637A013BDBB2012B0DD9637A3D
:105E6000022B1ED0002038BD0022C8E701BEEAE7A1
:105E7000E1692846FFF74EFFE8E7636903F5004351
:105E8000B3F5803F00D301BEA36903F50043B3F52A
:105E9000803F00D301BEA38AA26943EA02432B617B
:105EA000DDE7A36A2A68C2F30272022A00D001BEAB
:105EB000013BB3F5803F00D301BEEA8A9BB243EABF
:105EC00002436B61236A03F50043B3F5803F00D3BF
:105ED00001BE636A03F50043B3F5803F00D301BE02
:105EE000238C626A43EA0243AB610020BBE70248AD
:105EF00070470148B7E700BF0100FE00B0F1204F36
:105F00003CD018D880283BD007D9B0F5807F3FD04F
:105F1000244B984209D024487047102832D040289A
:105F200001D12248704700282ED170474FF4A400B9
:105F300070471D4870471E4B98422BD02DD31D4BE8
:105F400098422CD8B0F1704F12D900F1805001382E
:105F50000428EED801A353F820F000BF2D5F0010F5
:105F6000335F00108D5F0010755F0010795F0010C7
:105F70000D48704710487047104870470020704720
:105F80000F4870470F487047074870470E487047E2
:105F9000044870474FF4A000704703487047024818
:105FA000C3E700BF06005200FF005200020050008D
:105FB000090000A0050000F002005200030052009A
:105FC00005005200010050000100520010B5104BB6
:105FD0001B6893F83330012B00D801BE0C4B1C68B2
:105FE000236AB4F8BA201344D4F8BC20D358002B49
:105FF0000BDB084B1868FFF781FF636801229A608A
:1060000063689B68002BFBD110BD0348FCE700BF11
:10601000D82D0008DC2D00080200500010B507291B
:1060200000D901BE32F01F0300D001BE164B1B6821
:106030009C69001BC0095B694FEA001C03EB001060
:10604000032910D853F80C00C9004FF01F0E0EFAA8
:1060500001FE20EA0E0002F01F0202FA01F10143E4
:1060600043F80C1010BD04394368C9004FF01F0CF1
:106070000CFA01FC23EA0C0302F01F0202FA01F100
:1060800019434160EEE700BFD82D0008F8B5074678
:106090000D4614461E469DF81820072900D901BE5A
:1060A00034F00F0303D1012C01D0092C00D101BE23
:1060B000012E00D901BE32F01F0300D001BE2946D7
:1060C0003846FFF7ABFF3B680122AA4023EA0203F0
:1060D00006F00106AE401E433E60084B1B6893F875
:1060E0008110CB59AD000F22AA4023EA020304F02D
:1060F0000F04AC401C43CC51F8BD00BFD82D0008A4
:10610000072900D901BE0D4B1B689A69801AC00986
:106110005B69020103EB0010032906D89858C900F7
:1061200020FA01F101F01F00704704394068C900EE
:1061300020FA01F101F01F00704700BFD82D0008C0
:10614000072900D901BE012A00D901BE012303FAA3
:1061500001F10AB94160704781607047072900D991
:1061600001BE012303FA01F18160704700B50729E0
:1061700000D901BE32F00F0303D1012A01D0092A50
:1061800000D101BE89000A4B1B6893F881E05EF8DC
:1061900000304FF00F0C0CFA01FC23EA0C0302F064
:1061A0000F028A401A434EF800205DF804FB00BF3E
:1061B000D82D000800B5072900D901BE012A00D951
:1061C00001BE0A4B1B6893F882E05EF800304FF086
:1061D000010C0CFA01FC23EA0C0302F001028A40D4
:1061E0001A434EF800205DF804FB00BFD82D0008CC
:1061F000082900D901BE012A00D901BE83694FF0E8
:10620000010C0CFA01FC23EA0C0302F001028A40A3
:106210001A4382617047000000B5082900D901BE09
:10622000032A00D901BE4900094B1B6893F880E09E
:106230005EF800304FF0030C0CFA01FC23EA0C036B
:1062400002F003028A401A434EF800205DF804FB76
:10625000D82D0008002800F0A280F8B50D4614469D
:106260000646002A00F09D80072900D901BE236858
:10627000012B00D901BE636833F00F0203D1012B5B
:1062800001D0092B00D101BE237A33F01F0300D0C7
:1062900001BEE368032B00D901BE2369012B00D99D
:1062A00001BE6369012B00D901BE236A012B00D90D
:1062B00001BE636A012B00D901BEA36A012B00D97C
:1062C00001BEE36A032B00D901BE236B072B00D963
:1062D00001BEE369032B00D901BEA369012B00D9DC
:1062E00001BE0121A9406A0002F1100C032303FA48
:1062F0000CF319432C4F3B6893F88300835923EA2E
:106300000101A36903F00103AB400B43E26902F012
:10631000030202FA0CF213438351227A29463046D3
:10632000FFF77CFE626829463046FFF71FFFE268F0
:1063300029463046FFF770FF226929463046FFF7AD
:1063400057FF626929463046FFF734FF3B6893F8F0
:106350008410705820F0FF00236A03F00103626A82
:10636000520002F002021343A26A920002F00402F9
:106370001343E26AD20002F018021343226B520167
:10638000D2B21343AA0002F47E72934003437350C7
:10639000226829463046FFF7D3FE0020F8BD0348A7
:1063A00070470248FAE700BFD82D000801005A00E4
:1063B000084B1B68D3F8BC301B58002B07DA0B0CBA
:1063C0001B0403B101BE89B241600020704702483E
:1063D000704700BFD82D000801008A000368002B19
:1063E00008DAC2600B0C1B0403B101BE89B28160E4
:1063F000002070470048704701008A000A4651B1EA
:10640000074B1B68D3F8BC301B58002B05DAC36858
:1064100013600020704701BEF2E70248704700BFDA
:10642000D82D000801008A00034B1B6803B1704798
:10643000014B1860FBE700BF002E0008F0B4049D7C
:10644000234C2468002C40D0214C27682C2400FBCE
:1064500004F43819DEB23E51C3F3072444601B0C28
:1064600083601C4B1B6893F833309E4200D301BEFF
:10647000184B1B681C6AB3F8BA7007FB064404612A
:10648000446893F834309C4200D301BE114B1B6822
:106490001B6A803403EB441343618468260C360482
:1064A00006B101BE260C360406B101BE1FFA84FCFB
:1064B0004CEA04449C60C26101620023836115B10F
:1064C000B5F900308381F0BC704701BEBCE700BF66
:1064D000002E0008D82D000830B58FB004460028E3
:1064E00047D0A369072B00D901BEE36A002B42D035
